:100000000C949D040C94C5040C94C5040C94C50474
:100010000C94C5040C94C5040C94C5040C94C5043C
:100020000C94C5040C94C5040C94C5040C94C5042C
:100030000C94C5040C94C5040C94C5040C94C5041C
:100040000C94D72A0C94C5040C94AD2D0C94DF2D80
:100050000C94C5040C94C5040C94C5040C94C504FC
:100060000C94C5040C94C5046D61746368657320B9
:10007000746865207475746F7269616C2E00416CD0
:10008000736F206966207573696E672074686520D8
:10009000627265616B6F75742C20646F75626C653C
:1000A0002D636865636B207468617420616C6C20DB
:1000B000776972696E67004966207573696E67209B
:1000C00074686520627265616B6F757420626F6120
:1000D00072642C2069742073686F756C64204E4FB5
:1000E000542062652023646566696E65642100732F
:1000F000686F756C642061707065617220696E2034
:10010000746865206C6962726172792068656164E7
:100110006572202841646166727569745F54465443
:100120002E68292E00202023646566696E6520559F
:1001300053455F41444146525549545F53484945F0
:100140004C445F50494E4F555400496620757369C1
:100150006E672074686520416461667275697420F9
:10016000322E3422205446542041726475696E6FD9
:1001700020736869656C642C20746865206C696EF6
:10018000653A00556E6B6E6F776E204C4344206469
:10019000726976657220636869703A2000466F75EF
:1001A0006E642048583833353744204C434420642B
:1001B000726976657200466F756E6420494C4939E4
:1001C000333431204C4344206472697665720046B2
:1001D0006F756E642048583833343747204C434499
:1001E0002064726976657200466F756E6420494CB2
:1001F0004939333238204C43442064726976657241
:1002000000466F756E64204C4744503435333520BA
:100210004C43442064726976657200466F756E6463
:1002200020494C4939333235204C434420647269AB
:10023000766572005573696E6720416461667275F8
:10024000697420322E342220544654204272656153
:100250006B6F757420426F6172642050696E6F75A8
:100260007400544654204C43442074657374000059
:10027000000000003E5B4F5B3E3E6B4F6B3E1C3E02
:100280007C3E1C183C7E3C181C577D571C1C5E7F16
:100290005E1C00183C1800FFE7C3E7FF0018241895
:1002A00000FFE7DBE7FF30483A060E2629792926CA
:1002B000407F050507407F05253F5A3CE73C5A7FB4
:1002C0003E1C1C08081C1C3E7F14227F22145F5F0A
:1002D000005F5F06097F017F006689956A60606044
:1002E000606094A2FFA29408047E040810207E207F
:1002F0001008082A1C08081C2A08081E10101010D4
:100300000C1E0C1E0C30383E3830060E3E0E060019
:100310000000000000005F00000007000700147FDD
:10032000147F14242A7F2A12231308646236495644
:1003300020500008070300001C2241000041221C3D
:10034000002A1C7F1C2A08083E0808008070300024
:100350000808080808000060600020100804023E39
:100360005149453E00427F4000724949494621417A
:10037000494D331814127F1027454545393C4A49E9
:100380004931412111090736494949364649492928
:100390001E00001400000040340000000814224138
:1003A0001414141414004122140802015909063EC1
:1003B000415D594E7C1211127C7F494949363E41BC
:1003C0004141227F4141413E7F494949417F0909DD
:1003D00009013E414151737F0808087F00417F4178
:1003E000002040413F017F081422417F40404040AF
:1003F0007F021C027F7F0408107F3E4141413E7F07
:10040000090909063E4151215E7F091929462649FD
:1004100049493203017F01033F4040403F1F2040D4
:10042000201F3F4038403F631408146303047804DE
:10043000036159494D43007F4141410204081020A6
:10044000004141417F04020102044040404040001D
:100450000307080020545478407F28444438384427
:10046000444428384444287F385454541800087EA3
:10047000090218A4A49C787F0804047800447D40F5
:10048000002040403D007F1028440000417F400094
:100490007C047804787C080404783844444438FCAC
:1004A0001824241818242418FC7C08040408485430
:1004B00054542404043F44243C4040207C1C2040ED
:1004C000201C3C4030403C44281028444C909090E4
:1004D0007C4464544C44000836410000007700001E
:1004E000004136080002010204023C2623263C1E7D
:1004F000A1A161123A4040207A38545455592155EF
:10050000557941225454784221555478402054550D
:1005100079400C1E5272123955555559395454545C
:100520005939555454580000457C410002457D42DC
:100530000001457C407D1211127DF0282528F07CB9
:10054000545545002054547C547C0A097F49324953
:100550004949323A4444443A324A4848303A41419F
:10056000217A3A42402078009DA0A07D3D4242423F
:100570003D3D4040403D3C24FF2424487E494366A5
:100580002B2FFC2F2BFF0929F620C0887E09032082
:10059000545479410000447D413048484A32384043
:1005A00040227A007A0A0A727D0D19317D262929A6
:1005B0002F28262929292630484D402038080808A8
:1005C0000808080808382F10C8ACBA2F102834FAC9
:1005D00000007B000008142A142222142A1408AAFE
:1005E000005500AAAA55AA55AA000000FF00101045
:1005F00010FF00141414FF001010FF00FF1010F083
:1006000010F0141414FC001414F700FF0000FF0095
:10061000FF1414F404FC141417101F10101F101FE3
:100620001414141F00101010F0000000001F101010
:1006300010101F10101010F010000000FF1010100C
:10064000101010101010FF10000000FF140000FF29
:1006500000FF00001F10170000FC04F41414171012
:10066000171414F404F40000FF00F7141414141405
:100670001414F700F7141414171410101F101F147B
:100680001414F4141010F010F000001F101F0000DC
:10069000001F14000000FC140000F010F01010FF08
:1006A00010FF141414FF141010101F00000000F0AD
:1006B00010FFFFFFFFFFF0F0F0F0F0FFFFFF000082
:1006C000000000FFFF0F0F0F0F0F3844443844FCA9
:1006D0004A4A4A347E02020606027E027E026355C0
:1006E0004941633844443C04407E201E2006027E7B
:1006F000020299A5E7A5991C2A492A1C4C7201728D
:100700004C304A4D4D303048784830BC625A463DF6
:100710003E494949007E0101017E2A2A2A2A2A44AB
:10072000445F444440514A444040444A51400000E0
:10073000FF0103E080FF000008086B6B08361236EB
:100740002436060F090F06000018180000001010CC
:10075000003040FF0101001F01011E00191D17128A
:10076000003C3C3C3C000000000000000100FF0099
:1007700032000100000102000007030030100400F5
:10078000000008000202090000000A0000000C003E
:1007900000000D0000000F0000001000000011001C
:1007A00007001200000013000000FF00C800100046
:1007B000901611002702FF00320012001A00FF00FD
:1007C00032001300001829002A00FF003200300018
:1007D0000000310000003200000035000602360043
:1007E00008083700070038000102390000003C000B
:1007F00000003D000000200000002100000050002B
:1008000000005100EF005200000053003F01600063
:1008100000A7610003006A00000090001000920031
:10082000000093000300950000119700000098005D
:100830000000070033010100B903FF8357FFFAB33B
:100840000400000606B60125B00168CC0105B1061A
:1008500000151C1C83AAC0065050013C1E08B4079A
:100860000240002A2A0D783A01553601C0350100B0
:10087000440200021100FF962900FF322E89298FC1
:100880002B02E200E401E510E601E710E870F20057
:10089000EA00EB20EC3CEDC8E938F1011B1A1A0222
:1008A0002461255C183619011F88FF051F80FF058C
:1008B0001F90FF051FD4FF05170536092838FF28AC
:1008C000283C02000300040005EF060007000801B1
:1008D000093F7C3C3E5E2B3D3F2F5B5D3B2C2A223B
:1008E0005C00000000080002010000030407000093
:1008F00000000000000001020408102040800102F6
:100900000408102001020408102004040404040454
:1009100004040202020202020303030303030000B1
:100920000000250028002B00000000002400270004
:100930002A002706801BC51E0F2E11241FBECFEFD5
:10094000D8E0DEBFCDBF12E0A0E0B1E0E4E4F3E622
:1009500002C005900D92AC38B107D9F725E0ACE89C
:10096000B2E001C01D92A43DB207E1F719E0CAE36D
:10097000D9E004C02297FE010E944930C233D1075A
:10098000C9F70E94EC2F0C94A0310C940000CF9377
:10099000DF93EC01CB01FB01228133813B832A836E
:1009A00044815581668177814C835D836E837F832B
:1009B0004085518562857385488759876A877B871B
:1009C00026E532E0398328832DE03C96DE011C9633
:1009D00001900D922A95E1F7FC01818D928D9A8FFD
:1009E000898FDF91CF9108951F93CF93DF93EC010F
:1009F0000E94D318182FCE010E94D31820E030E0B7
:100A0000382FC901812BDF91CF911F910895EF926B
:100A1000FF920F931F93CF93DF93CDB7DEB76B9702
:100A20000FB6F894DEBF0FBECDBF7C01BC01CE0176
:100A300001960E94C704CE0101960E94F4048C0125
:100A4000B701CE0101960E94C704CE0101960E9413
:100A5000F404A0E0B0E07727662720E030E0602BC8
:100A6000712B822B932B6B960FB6F894DEBF0FBEC3
:100A7000CDBFDF91CF911F910F91FF90EF9008951F
:100A80008F929F92AF92BF92CF92DF92EF92FF929E
:100A90000F931F93CF93DF93CDB7DEB76B970FB64E
:100AA000F894DEBF0FBECDBF8C01BC01CE01019614
:100AB0000E94C704CE0101960E94F40482349D4432
:100AC00011F080E0B1C0B801CE0101960E94C704C8
:100AD000CE0101960E9407056B017C016CE571E077
:100AE00083E395E00E94B32E20E130E0B701A60138
:100AF00083E395E00E94D72FB801CE0101960E94B2
:100B0000C704CE0101960E940705B801CE010196E7
:100B10000E94C704CE0101960E9407056093A702B8
:100B200064E671E083E395E00E94B32E4AE050E072
:100B30006091A70283E395E00E94AA2FB801CE013D
:100B400001960E94C704CE0101960E9407056B0121
:100B50007C016CE671E083E395E00E94B32E2AE00D
:100B600030E0B701A60183E395E00E94D72FB801DA
:100B7000CE0101960E94C704CE0101960E9407058E
:100B80004B015C01B801CE0101960E94C704CE0161
:100B900001960E94070520EF8216910409F091CF7B
:100BA0006034714009F08DCFB801CE0101960E94EA
:100BB000C704CE0101960E94F404019709F081CF89
:100BC000B801CE0101960E94C704CE0101960E9491
:100BD000F404B82E69E771E083E395E00E94B32E38
:100BE0004AE050E06B2D83E395E00E94AA2FB80104
:100BF000CE0101960E94C704CE0101960E9407050E
:100C0000672B682B692B09F05CCF63E871E083E305
:100C100095E00E94B32E2AE030E0B701A60183E3FD
:100C200095E00E94D72F81E06B960FB6F894DEBF57
:100C30000FBECDBFDF91CF911F910F91FF90EF902D
:100C4000DF90CF90BF90AF909F908F900895EF92DC
:100C50000F9332E1E32E0EE02FE040E161E188EAFC
:100C600092E00E943D0E8CE892E00F91EF900C9480
:100C700041194F925F926F927F928F929F92AF92A3
:100C8000BF92CF92DF92EF92FF920F931F93CF9379
:100C9000DF93CDB7DEB7CC52D1400FB6F894DEBFAC
:100CA0000FBECDBF4091A70250E060E070E08CE83D
:100CB00092E00E945E190E94212B2B013C01E12C45
:100CC000F12C4E0187EB880E911C00E010E044EB04
:100CD00050E0BE016F5F7F4F8CE892E00E94541994
:100CE000FE013396AE014B545F4FCF010197DC01FB
:100CF0008C9190E09595879595958795208130E02A
:100D000073E0359527957A95E1F7A6E0220F331F1A
:100D1000AA95E1F7822B932BB5E0880F991FBA951E
:100D2000E1F79F0122503109D9012C9130E063E0B5
:100D3000359527956A95E1F7822B932BDA018D93F0
:100D40009D93AD013396E815F90579F6FE01EB5454
:100D5000FF4F5F01C12CD12CD5012D913D915D013B
:100D6000B601600F711FA70188EA92E00E948A1500
:100D7000BFEFCB1ADB0AECE3CE16D10469F7045CB3
:100D80001F4F003F110509F0A2CFFFEFEF1AFF0A36
:100D900080E4E81681E0F80609F097CF0E94212B45
:100DA000AB01BC0144195509660977092AE030E016
:100DB00083E395E00E949D2F60E971E083E395E075
:100DC0000E94D22EC45DDE4F0FB6F894DEBF0FBE78
:100DD000CDBFDF91CF911F910F91FF90EF90DF90EA
:100DE000CF90BF90AF909F908F907F906F905F90CB
:100DF0004F900895FF920F931F93CF93DF93CDB73A
:100E0000DEB76B970FB6F894DEBF0FBECDBF10E014
:100E100004E17DE0F72E812F90E020915601309182
:100E20005701821793070CF09DC0089FA001099FEE
:100E3000500D11244A5F5E4F21E061ED72E0CE015A
:100E400001960E94F21A8B819C8190938F0280936D
:100E50008E028D819E81AF81B885809390029093A0
:100E60009102A0939202B093930289859A85AB85F3
:100E7000BC858093940290939502A0939602B093C0
:100E80009702FE013D96A8E9B2E08F2D01900D92E8
:100E90008A95E1F78A8D9B8D9093A6028093A50297
:100EA0008CE892E00E94CC19811118C064E971E0CD
:100EB00083E395E00E94D22E6FEF7FEF88EA92E005
:100EC0000E94840B61E088EA92E00E947E0B65EA52
:100ED00071E088EA92E00E94D22EFFCF6CE872E0C7
:100EE000CE0101960E94C704CE0101960E944005E2
:100EF000811118C069EB71E083E395E00E94D22E66
:100F00006FEF7FEF88EA92E00E94840B61E088EA4D
:100F100092E00E947E0B69EB71E088EA92E00E9409
:100F2000D22E20C06CE872E0CE0101960E94C70468
:100F300040E050E060E070E0CE0101960E9439068A
:100F40008CE892E00E94BA1968EE73E080E090E0CD
:100F50000E94502B68EE73E080E090E00E94502BDE
:100F60001F5F59CF6B960FB6F894DEBF0FBECDBF93
:100F7000DF91CF911F910F91FF900895CF93DF9351
:100F800026E040E855E260E070E083E395E00E94EF
:100F90004B2D62E672E083E395E00E94C02E64E38D
:100FA00072E083E395E00E94C02E61EC71E083E380
:100FB00095E00E94B32E88EA92E00E949F0B4AE0DF
:100FC00050E0BC0183E395E00E947D2F62E671E072
:100FD00083E395E00E94B32E88EA92E00E94A30B7F
:100FE0004AE050E0BC0183E395E00E94852F88EA47
:100FF00092E00E94A70B88EA92E00E947F11EC0128
:10100000C13081E0D80721F1C53283E9D80719F44E
:101010006BE172E006C0C53385E4D80739F461E0BE
:1010200072E083E395E00E94C02E55C0C83283E988
:10103000D80719F468EE71E0F4CFC53785E7D80713
:1010400019F46FEC71E0EDCFC13483E9D80749F4AE
:1010500066EB71E083E395E00E94C02EC1E4D3E922
:101060003AC0C73583E8D80719F46DE971E0D9CFE4
:1010700063E871E083E395E00E94902E40E150E048
:10108000BE0183E395E00E94C12F6AE471E083E32F
:1010900095E00E94C02E65E271E083E395E00E9436
:1010A000C02E6FEE70E083E395E00E94C02E67EBE8
:1010B00070E083E395E00E94C02E6EE770E083E36A
:1010C00095E00E94C02E68E670E083E395E0DF9132
:1010D000CF910C94C02EBE0188EA92E00E9428179E
:1010E0006FE170E088EA92E00E94381561E08AE0E2
:1010F0000E94F92B6AE081ED92E00E94D9198111DA
:101100001EC06EEC71E083E395E00E94D22E40E0B9
:1011100050E060E070E088EA92E00E94780B6FEFA8
:101120007FEF88EA92E00E94840B61E088EA92E017
:101130000E947E0B65EE71E088EA92E004C068EFE1
:1011400071E083E395E0DF91CF910C94D22E2F9242
:101150003F924F925F926F927F928F929F92AF9247
:10116000BF92CF92DF92EF92FF920F931F93CF9394
:10117000DF9300D000D0CDB7DEB74C017C836B830A
:101180006A015901C8018701AC014C195D0957FF7B
:1011900003C051954195510995016B817C81261BB6
:1011A000370B37FF03C03195219531092224239451
:1011B000312C2417350714F0212C312C2114310443
:1011C00059F03A2D2B2D5C01832F922F3B812C81DE
:1011D000DC82CB82C32ED22EAB81BC81AA16BB0689
:1011E0005CF43C2D2D2D6C01832F922F3B812C81A3
:1011F000BC82AB82A32EB22E2501EB81FC814E1A5C
:101200005F0A3C016C187D0877FE03C071946194FD
:101210007108720157FE03C0FFEFEF1AFF0AF59441
:10122000E794C816D9062CF421E030E03A832983EC
:1012300024C06FEF7FEF7A8369831FC0D401ED91E3
:10124000FC910480F581E02D980121143104D9F03E
:101250004B815C81B601C4010995E618F708F7FED9
:1012600006C0E981FA81CE0EDF1EE40CF51C2B814D
:101270003C812F5F3F4F3C832B836B817C81A61683
:10128000B706E4F604C0A6016B817C81E4CF0F9021
:101290000F900F900F90DF91CF911F910F91FF90C2
:1012A000EF90DF90CF90BF90AF909F908F907F9006
:1012B0006F905F904F903F902F9008956F927F9224
:1012C0008F929F92AF92BF92CF92DF92EF92FF9256
:1012D0000F931F93CF93DF93EC015B016A013901F8
:1012E0004801E881F9810284F385E02D87010995A1
:1012F000E881F981A601480D591D41505109028428
:10130000F385E02D9301B501CE010995E881F981BE
:101310000084F185E02D9401A601B501CE01099567
:10132000E881F981B501660D771D6150710900846E
:10133000F185E02D9401A601CE010995DF91CF91B1
:101340001F910F91FF90EF90DF90CF90BF90AF90E3
:101350009F908F907F906F900895EF92FF920F93E0
:101360001F93DC01ED91FC91240F351F21503109B1
:101370000680F781E02D780189019B0109951F9175
:101380000F91FF90EF900895EF92FF920F931F93AC
:10139000DC01ED91FC91260F371F215031090680A9
:1013A000F781E02D78018A0109951F910F91FF9037
:1013B000EF9008956F927F928F929F92AF92BF921B
:1013C000CF92DF92EF92FF920F931F93CF93DF9311
:1013D0005C014A0169013801EB01C60ED71ECC152C
:1013E000DD0574F4D501ED91FC910084F185E02DCB
:1013F00087019301A401BE01C50109952196EFCF94
:10140000DF91CF911F910F91FF90EF90DF90CF90E0
:10141000BF90AF909F908F907F906F900895EF92C4
:10142000FF920F931F93DC01ED91FC9111971A9697
:101430000D911C911B9718962D913C91199706843C
:10144000F785E02D7B0140E050E060E070E0099519
:101450001F910F91FF90EF9008950895FC01138262
:10146000128281E192E09183808375836483578344
:1014700046837187608753874287158A158614864D
:101480001786168621E0248B8FEF9FEF938B828B3C
:10149000918B808B268B08952F923F924F925F9273
:1014A0006F927F928F929F92AF92BF92CF92DF9274
:1014B000EF92FF920F931F93CF93DF93CDB7DEB7D9
:1014C0002C970FB6F894DEBF0FBECDBF9C878B87DD
:1014D0003A0118870F83FA86E986CD82DC011896D7
:1014E0008D919C911997681779070CF094C01A9602
:1014F0008D919C911B97481759070CF08CC08C2C30
:10150000912CCB01B6E0CB9E800D911D11241816B5
:1015100019060CF080C0C40153E0880F991F5A953A
:10152000E1F7860D971D181619060CF074C0F5E04A
:101530002F9F200111245B016B011C829201215914
:101540003D4F2901461A570A3C81353031F0F201EE
:10155000EA0DFB1D44914B8301C01B827A82698294
:1015600013011E828B8180FF13C0AB85BC85ED917A
:10157000FC91BD81B13031F40480F581E02D2F81E3
:10158000388519C00684F785E02DEF80F8841EC0E9
:10159000E985FA852F813885E217F307F9F0AB85E5
:1015A000BC85ED91FC91BD81B13059F40480F58189
:1015B000E02D29853A85A101B5018B859C8509958A
:1015C0000DC00684F785E02DE984FA848401940136
:1015D00049815A81B6018B859C850995EB81E695F9
:1015E000EB83FE81FF5FFE8329813A81280D391D3F
:1015F0003A8329833FEF231A330AF83009F0B2CF38
:101600004C814F5F4C83C80CD91C8FEFA81AB80AC5
:10161000463009F099CF2C960FB6F894DEBF0FBE76
:10162000CDBFDF91CF911F910F91FF90EF90DF9091
:10163000CF90BF90AF909F908F907F906F905F9072
:101640004F903F902F900895CF92EF92FF920F937B
:101650001F93CF93DF93EC01262F6A3049F42C8936
:101660008E859F8538E0239F800D911D112432C007
:101670006D30A1F1EA88FB88088919894E855F855C
:101680006C857D85CC880E944C0A2C89422F50E0C5
:101690008C859D8536E0239F800D911D11249D87AB
:1016A0008C872E892223D1F06AEF64039001659F15
:1016B000300D112468857985260F371F28173907C3
:1016C0006CF463E0440F551F6A95E1F78E859F85A2
:1016D000840F951F9F878E871D861C8681E090E072
:1016E000DF91CF911F910F91FF90EF90CF900895D0
:1016F000FC0175876487578746870895611101C08B
:1017000061E0FC01648B0895FC01738B628B718B2B
:10171000608B0895FC016370658B848195812681BF
:101720003781613039F0633029F0918780873387C2
:101730002287089531872087938782870895FC0147
:10174000808591850895FC01828593850895CF93C6
:10175000DF93EC01E88DF98D808198A1892B80833E
:10176000EC8DFD8D80819AA1892B8083EE8DFF8D7C
:1017700080819BA1892B808388A5882369F060E004
:101780000E94322C62E070E080E090E00E94502BDA
:1017900061E088A50E94322CE88DF98D80819CA1A2
:1017A00089238083EA8DFB8D80819DA1892380839D
:1017B0008BB183708BB985B18C7F85B9EC8DFD8D34
:1017C00080819EA189238083EC8DFD8D80819AA1EB
:1017D000892B808383E0EC8DFD8D90812EA1922357
:1017E0009083EC8DFD8D90812AA1922B9083815066
:1017F00091F7E88DF98D808198A1892B8083DF9105
:10180000CF910895DF92EF92FF920F931F93CF93A2
:10181000DF93FC01CB01A08DB18D6C9174A1672386
:101820006C93A28DB38D6C9175A167236C936789BE
:101830006230B9F0611113C06BB163706BB965B1FF
:101840006C7F65B9A48DB58D6C9176A167236C937F
:10185000A48DB58D6C9172A1672B6C9309C0633018
:1018600039F46BB163706C626BB965B16C7F07C0A2
:101870006BB1637060626BB965B16C7F626065B9B2
:10188000A48DB58D6C9176A167236C93A48DB58DD5
:101890006C9172A1672B6C93A28DB38D6C9171A129
:1018A000672B6C936BB1C92FCC7F63706C2B6BB9BA
:1018B00065B1D92FD3706C7F6D2B65B9A48DB58DB3
:1018C0006C9176A167236C93A48DB58D6C9172A1F8
:1018D000672B6C936BB1782F7C7FF72E6370672B2F
:1018E0006BB965B1782F7370E72E6C7F672B65B984
:1018F000A48DB58D6C9176A167236C93A48DB58D65
:101900006C9172A1672B6C93BA01A90141505109E6
:10191000610971098A019B0156E036952795179553
:1019200007955A95D1F7981719F080E090E03AC1E1
:1019300080E090E00817190709F466C020E1A48D43
:10194000B58D3C91C6A13C233C93A48DB58D3C91B3
:10195000C2A13C2B3C93A48DB58D3C91C6A13C23E8
:101960003C93A48DB58D3C91C2A13C2B3C93A48D9E
:10197000B58D3C91C6A13C233C93A48DB58D3C9183
:10198000C2A13C2B3C93A48DB58D3C91C6A13C23B8
:101990003C93A48DB58D3C91C2A13C2B3C93A48D6E
:1019A000B58D3C91C6A13C233C93A48DB58D3C9153
:1019B000C2A13C2B3C93A48DB58D3C91C6A13C2388
:1019C0003C93A48DB58D3C91C2A13C2B3C93A48D3E
:1019D000B58D3C91C6A13C233C93A48DB58D3C9123
:1019E000C2A13C2B3C93A48DB58D3C91C6A13C2358
:1019F0003C93A48DB58D3C91C2A13C2B3C932150CE
:101A000009F09DCF019696CF4F734150C8F0A48D39
:101A1000B58D8C9196A189238C93A48DB58D8C91D5
:101A200092A1892B8C93A48DB58D8C9196A189233D
:101A30008C93A48DB58D8C9192A1892B8C93E5CF3D
:101A4000A08DB18D8C9190A1892B8C93DF91CF913A
:101A50001F910F91FF90EF90DF9008953BB133708D
:101A60003C2B3BB935B13C7F3D2B35B9A48DB58DB1
:101A70003C91D6A03D213C93A48DB58D3C91D2A044
:101A80003D293C933BB133703F293BB935B13C7F95
:101A90003E2935B9A48DB58D3C91D6A03D213C930E
:101AA000A48DB58D3C91D2A03D293C933BB13370C0
:101AB0003C2B3BB935B13C7F3D2B35B9A48DB58D61
:101AC0003C91D6A03D213C93A48DB58D3C91D2A0F4
:101AD0003D293C933BB133703F293BB935B13C7F45
:101AE0003E2935B9A48DB58D3C91D6A03D213C93BE
:101AF000A48DB58D3C91D2A03D293C933BB1337070
:101B00003C2B3BB935B13C7F3D2B35B9A48DB58D10
:101B10003C91D6A03D213C93A48DB58D3C91D2A0A3
:101B20003D293C933BB133703F293BB935B13C7FF4
:101B30003E2935B9A48DB58D3C91D6A03D213C936D
:101B4000A48DB58D3C91D2A03D293C933BB133701F
:101B50003C2B3BB935B13C7F3D2B35B9A48DB58DC0
:101B60003C91D6A03D213C93A48DB58D3C91D2A053
:101B70003D293C933BB133703F293BB935B13C7FA4
:101B80003E2935B9A48DB58D3C91D6A03D213C931D
:101B9000A48DB58D3C91D2A03D293C93215009F0F4
:101BA0005DCF01960817190711F020E157CF4F7349
:101BB000415008F445CF8BB183708C2B8BB985B124
:101BC0008C7F8D2B85B9A48DB58D8C9196A18923A1
:101BD0008C93A48DB58D8C9192A1892B8C938BB114
:101BE00083708F298BB985B18C7F8E2985B9A48D9F
:101BF000B58D8C9196A189238C93A48DB58D8C91F4
:101C000092A1892B8C93D4CFFC01A68DB78D8C919A
:101C100097A189238C9300C000C000C0000089B147
:101C200093B1A68DB78D2C9133A1232B2C93937058
:101C30008C7F892B08958AB18C6F8AB984B18360B7
:101C400084B90895CF93DF93EC010E941B0E1D8A87
:101C50001D861C861F861E8681E08C8B8FEF9FEF72
:101C6000998B888B80EF90E09987888780E491E05A
:101C70009B878A87DF91CF9108959F92AF92BF9201
:101C8000CF92DF92EF92FF920F931F93CF93DF9348
:101C9000EC01A62EF42EB22E902E40E451E060EF1F
:101CA00070E00E942E0A8EE392E099838883E8A672
:101CB0006A2D70E0FB01E65FF64FE491F0E0EE0F75
:101CC000FF1FE25EF64FA591B491B98FA88F4F2DFB
:101CD00050E0FA01E65FF64FE491F0E0EE0FFF1FEF
:101CE000E25EF64F859194919B8F8A8F2B2D30E089
:101CF000F901E65FF64FE491F0E0EE0FFF1FE25EC0
:101D0000F64F859194919D8F8C8F092D10E0F801ED
:101D1000E65FF64FE491F0E0EE0FFF1FE25EF64F54
:101D2000C590D490DF8ECE8EFB01EA50F74F6491C0
:101D300068A3FA01EA50F74F449149A3F901EA5028
:101D4000F74F24912AA3F801EA50F74F04910BA30F
:101D500098A1892F80958CA389A180958DA38AA1B4
:101D600080958EA300950FA38C91892B8C93EA8D7F
:101D7000FB8D808199A1892B8083EC8DFD8D8081E5
:101D80009AA1892B8083EE8DFF8D80819BA1892B69
:101D9000808361E08A2D0E94F92B61E08F2D0E94E3
:101DA000F92B61E08B2D0E94F92B61E0892D0E94B7
:101DB000F92BEE2041F061E08E2D0E94322C61E083
:101DC0008E2D0E94F92BCE01DF91CF911F910F91A3
:101DD000FF90EF90DF90CF90BF90AF909F900C94CA
:101DE000220E8AB183708AB984B18C7F84B9089538
:101DF000CF92DF92EF92FF92CF93DF93EC01E88DC9
:101E0000F98D80819CA189238083EA8DFB8D80815F
:101E10009DA1892380839BB1862F8C7F9370892B12
:101E20008BB985B163708C7F682B65B9EC8DFD8DA6
:101E300080819EA189238083EC8DFD8D80819AA174
:101E4000892B8083CE010E94F10EEA8DFB8D80816B
:101E500099A1892B808382E390E00E948A2BCE0196
:101E60000E94040EC82ED12CE12CF12CFE2CED2C5E
:101E7000DC2CCC24CE010E94040EC82AFE2CED2CB2
:101E8000DC2CCC24CE010E94040EC82AFE2CED2CA2
:101E9000DC2CCC24CE010E94040EC82AE88DF98DDA
:101EA000808198A1892B8083CE010E941B0EC701DF
:101EB000B601DF91CF91FF90EF90DF90CF90089522
:101EC000FC01A28DB38D8C9195A189238C939BB13C
:101ED000862F8C7F9370892B8BB985B163708C7F33
:101EE000682B65B9A48DB58D8C9196A189238C93AF
:101EF000A48DB58D8C9192A1892B8C93A28DB38DDD
:101F00008C9191A1892B8C939BB1842F8C7F9370A2
:101F1000892B8BB985B143708C7F482B45B9A48D33
:101F2000B58D8C9196A189238C93A48DB58D8C91C0
:101F300092A1892B8C930895FC01A28DB38D8C9175
:101F400095A189238C939BB1872F8C7F9370892BCC
:101F50008BB985B173708C7F782B75B9A48DB58DD5
:101F60008C9196A189238C93A48DB58D8C9192A18F
:101F7000892B8C939BB1862F8C7F9370892B8BB987
:101F800085B163708C7F682B65B9A48DB58D8C91FC
:101F900096A189238C93A48DB58D8C9192A1892BC8
:101FA0008C93A28DB38D8C9191A1892B8C939BB135
:101FB000852F8C7F9370892B8BB985B153708C7F63
:101FC000582B55B9A48DB58D8C9196A189238C93EE
:101FD000A48DB58D8C9192A1892B8C939BB1842F6C
:101FE0008C7F9370892B8BB985B143708C7F482B84
:101FF00045B9A48DB58D8C9196A189238C93A48D20
:10200000B58D8C9192A1892B8C930895FC01A28DA2
:10201000B38D8C9195A189238C939BB1862F8C7F56
:102020009370892B8BB985B163708C7F682B65B9F0
:10203000A48DB58D8C9196A189238C93A48DB58D9B
:102040008C9192A1892B8C93A28DB38D8C9191A1AF
:10205000892B8C939BB1832F8C7F9370892B8BB9A9
:1020600085B133708C7F382B35B9A48DB58D8C91AB
:1020700096A189238C93A48DB58D8C9192A1892BE7
:102080008C93A28DB38D8C9195A189238C939BB158
:10209000842F8C7F9370892B8BB985B143708C7F93
:1020A000482B45B9A48DB58D8C9196A189238C932D
:1020B000A48DB58D8C9192A1892B8C93A28DB38D1B
:1020C0008C9191A1892B8C939BB1822F8C7F9370E3
:1020D000892B8BB985B123708C7F282B25B9A48DD2
:1020E000B58D8C9196A189238C93A48DB58D8C91FF
:1020F00092A1892B8C930895CF93DF93EC01E88D07
:10210000F98D80819CA18923808328853985215080
:10211000310945E064E0CE010E9406102A853B8526
:102120002150310949E068E0CE010E940610E88D97
:10213000F98D808198A1892B8083DF91CF910895BB
:102140000F931F93CF93DF9300D000D0CDB7DEB7AE
:102150008C01DC015896ED91FC9159978081949601
:102160009C919497892380835A96ED91FC915B977B
:10217000808195969C919597892380839BB1862F2A
:102180008C7F9370892B8BB985B163708C7F682BA2
:1021900065B95C96ED91FC915D97808196969C91D6
:1021A0009697892380835C96ED91FC915D97808161
:1021B00092969C919297892B80835A96ED91FC91EF
:1021C0005B97808191969C91892B80838AE090E037
:1021D00029833A834B835C830E948A2B7BB12981BC
:1021E0003A814B815C81CA01AA27BB27682F6C7F8B
:1021F0007370672B6BB965B183706C7F862B85B963
:10220000D8015C96ED91FC915D97808196969C91AA
:102210009697892380835C96ED91FC915D978081F0
:1022200092969C91892B80838AE090E029833A835F
:102230004B835C830E948A2BFBB129813A814B81BD
:102240005C81BB27A52F942F832FE82FEC7FF370A1
:10225000EF2BEBB9E5B1682F6370EC7F6E2B65B99E
:10226000D8015C96ED91FC915D97808196969C914A
:102270009697892380835C96ED91FC915D97808190
:1022800092969C91892B80838AE090E029833A83FF
:102290004B835C830E948A2B9BB12981822F8C7F88
:1022A0009370892B8BB985B123708C7F282B25B92E
:1022B000D8015C96ED91FC915D97808196969C91FA
:1022C0009697892380835C96ED91FC915D97808140
:1022D00092969C919297892B80835896ED91FC91D0
:1022E0005997808190969C91892B80830F900F90B5
:1022F0000F900F90DF91CF911F910F9108950F9341
:102300001F93CF93DF93EC0164E00E94F80E6115F8
:1023100070488105910509F450C063EDCE010E941B
:10232000F80E6134734909F463C0E88DF98D80813A
:102330009CA189238083EA8DFB8D80819DA18923C7
:1023400080838BB183708BB985B18C7F85B9EC8D1F
:10235000FD8D80819EA189238083EC8DFD8D808100
:102360009AA1892B8083EC8DFD8D80819EA189238C
:102370008083EC8DFD8D80819AA1892B8083CE0195
:102380000E94F10EEA8DFB8D808199A1892B8083BB
:10239000CE010E94040E182FCE010E94040E082FB9
:1023A000CE010E941B0EE88DF98D908188A1982B9B
:1023B0009083802F90E0912B1DC027E533E84FEFED
:1023C00050E069EBCE010E94A0106CE271E080E069
:1023D00090E00E94502B60EDCE010E94F80E611536
:1023E00071058949910509F098CF87E593E802C006
:1023F00081E493E9DF91CF911F910F9108950F939D
:102400001F93CF93DF9300D000D0CDB7DEB78C0100
:10241000DC015896ED91FC915997808194969C919E
:102420009497892380835A96ED91FC915B978081E4
:1024300095969C919597892380839BB1862F8C7F5D
:102440009370892B8BB985B163708C7F682B65B9CC
:102450005C96ED91FC915D97808196969C91969704
:10246000892380835C96ED91FC915D9780819296A3
:102470009C919297892B80835A96ED91FC915B9762
:10248000808191969C91892B80838AE090E02983BA
:102490003A834B835C830E948A2B7BB129813A81EA
:1024A0004B815C81852F9927AA27BB27682F6C7FDA
:1024B0007370672B6BB965B183706C7F862B85B9A0
:1024C000D8015C96ED91FC915D97808196969C91E8
:1024D0009697892380835C96ED91FC915D9780812E
:1024E00092969C91892B80838AE090E029833A839D
:1024F0004B835C830E948A2B7BB129813A814B817B
:102500005C81CA01AA27BB27682F6C7F7370672B79
:102510006BB965B183706C7F862B85B9D8015C96E9
:10252000ED91FC915D97808196969C919697892379
:1025300080835C96ED91FC915D97808192969C9151
:10254000892B80838AE090E029833A834B835C83E4
:102550000E948A2BFBB129813A814B815C81BB2788
:10256000A52F942F832FE82FEC7FF370EF2BEBB97F
:10257000E5B1682F6370EC7F6E2B65B9D8015C966E
:10258000ED91FC915D97808196969C919697892319
:1025900080835C96ED91FC915D97808192969C91F1
:1025A000892B80838AE090E029833A834B835C8384
:1025B0000E948A2B9BB12981822F8C7F9370892B5B
:1025C0008BB985B123708C7F282B25B9D8015C96F7
:1025D000ED91FC915D97808196969C9196978923C9
:1025E00080835C96ED91FC915D97808192969C91A1
:1025F0009297892B80835896ED91FC915997808111
:1026000090969C91892B80830F900F900F900F9044
:10261000DF91CF911F910F9108958F929F92AF926A
:10262000BF92CF92DF92EF92FF920F931F93CF93BF
:10263000DF93EC017A016901E88DF98D80819CA11D
:10264000892380838F8981115EC08D89823089F0D2
:10265000833021F1813081F58FEE90E09C01201BC9
:10266000310B5B014C01841A950A860164017B01E0
:1026700013C08FEE90E09C012C193D096C01C61A25
:10268000D70A8FE391E0AC01401B510B8C010E196E
:102690001F09580146017A01B90110C08FE391E08A
:1026A0009C012C193D095C01A61AB70A4A01680170
:1026B0008501B701790102C05A014B01AB0160E508
:1026C00070E0CE010E949C0FA60161E570E0CE0192
:1026D0000E949C0FA70162E570E0CE010E949C0F52
:1026E000A80163E570E0CE010E949C0FA40160E2A6
:1026F00070E0CE010E949C0FA50161E270E0CE0166
:102700000E949C0F48C08130C9F49B0143E062E005
:10271000CE010E940610970147E066E0CE010E94BC
:102720000610960145E064E0CE010E940610980173
:1027300049E068E0CE010E9406102DC08250823030
:1027400050F5CB01AA2797FDA095BA2FAC013327EE
:102750002227C601AA2797FDA095BA2F282B392B2F
:102760004A2B5B2B6AE2CE010E94FF11C701AA2708
:1027700097FDA095BA2FAC0133272227C801AA27BD
:1027800097FDA095BA2F282B392B4A2B5B2B6BE298
:10279000CE010E94FF11E88DF98D808198A1892BCF
:1027A0008083DF91CF911F910F91FF90EF90DF9089
:1027B000CF90BF90AF909F908F900895CF92DF926F
:1027C000EF92FF920F931F93CF93DF93EC01690178
:1027D0007801121613060CF04FC057FD4DC08A85C4
:1027E0009B85481759070CF047C08885998568175D
:1027F00079070CF041C0FB01E20FF31F9F0121504C
:10280000310937FD39C077FF03C06F0160E070E028
:102810002817390734F09C01215031096C01C61A80
:10282000D70A8A01CE010E940D139601442737FD75
:102830004095542FB701CE010E94020C8F8981115F
:1028400010C00A851B850150110928853985215042
:10285000310940E050E060E070E0CE010E940D13CD
:102860000BC0CE01DF91CF911F910F91FF90EF90A0
:10287000DF90CF900C947C10DF91CF911F910F913E
:10288000FF90EF90DF90CF900895CF92DF92EF927C
:10289000FF920F931F93CF93DF93EC0169017801AF
:1028A000121613060CF04FC077FD4DC08885998530
:1028B000681779070CF047C08A859B854817590728
:1028C0000CF041C09A012C0D3D1D890101501109E8
:1028D00017FD39C057FF03C0690140E050E00817F9
:1028E000190734F08C01015011096C01C41AD50A82
:1028F0009B01CE010E940D139601442737FD4095A0
:10290000542FB701CE010E94020C8F89811110C093
:102910000A851B8501501109288539852150310907
:1029200040E050E060E070E0CE010E940D130BC06B
:10293000CE01DF91CF911F910F91FF90EF90DF902B
:10294000CF900C947C10DF91CF911F910F91FF904D
:10295000EF90DF90CF9008958F929F92AF92BF92A9
:10296000CF92DF92EF92FF920F931F93CF93DF935B
:10297000EC01590168014701121613060CF06BC0F7
:10298000101611060CF067C08885998568177907BD
:102990000CF061C0EA84FB844E155F050CF05BC04F
:1029A000FB01E20FF31F9F012150310937FD53C096
:1029B000DA01A00FB11F8D010150110917FD4BC0A5
:1029C00077FF03C05F0160E070E057FF03C06D0157
:1029D00040E050E02817390734F09C0121503109BC
:1029E0005C01A61AB70A0E151F0534F087010150C5
:1029F00011096701C41AD50ACE010E940D13960170
:102A0000D5010E941E309B01AC01B401CE010E9491
:102A1000020C8F89811110C00A851B850150110994
:102A2000288539852150310940E050E060E070E0B0
:102A3000CE010E940D130FC0CE01DF91CF911F91E7
:102A40000F91FF90EF90DF90CF90BF90AF909F904D
:102A50008F900C947C10DF91CF911F910F91FF907C
:102A6000EF90DF90CF90BF90AF909F908F900895A0
:102A7000EF92FF920F931F93CF93DF93EC017B01B3
:102A80008F89811127C0ED89E150E33068F4F0E0CF
:102A9000DF01A95CBD4F4C9150E0EE0FFF1FEF5CD2
:102AA000FD4F0081118104C000E010E040E050E0E3
:102AB000E88DF98D80819CA18923808360E270E09C
:102AC000CE010E949C0FA80161E270E0CE010E943D
:102AD0009C0F12C08150833078F40A851B85015009
:102AE0001109288539852150310940E050E060E026
:102AF00070E0CE010E940D1320E03CE241E050E086
:102B0000B701CE01DF91CF911F910F91FF90EF9010
:102B10000C94020CAF92BF92CF92DF92EF92FF9291
:102B20000F931F93CF93DF93EC016B017A01B22EC9
:102B3000A32E77FDE0C057FDDEC088859985681714
:102B400079070CF0D8C08A859B85481759070CF087
:102B5000D2C0E88DF98D80819CA1892380838F89E3
:102B6000811135C08D89823059F08330B1F08130C8
:102B7000D1F48FEE90E0841B950B7B016C0113C0A8
:102B80008FEE90E09C01261B370B69018FE391E0EB
:102B90009C01241B350B790106C08FE391E0861B55
:102BA000970B6A017C01A60160E270E0CE010E94F1
:102BB0009C0FA70161E270E0CE010E949C0F4B2D9B
:102BC0005A2D62E270E0CE010E949C0F8EC08130CF
:102BD00041F5ED89E150E33028F4F0E0E25DFD4F8E
:102BE000408101C040E066E1CE010E94600F960185
:102BF00043E062E0CE010E940610970147E066E0E4
:102C0000CE010E940610EA8DFB8D80819DA1892353
:102C100080838BB1837080628BB985B18C7F826039
:102C200021C08250823008F060C00A851B850150A7
:102C300011092885398521503109CE010E940D13D3
:102C4000E88DF98D80819CA189238083EA8DFB8D9D
:102C500080819DA1892380838BB183708C628BB925
:102C600085B18C7F85B9EC8DFD8D80819EA18923F6
:102C70008083EC8DFD8D80819AA1892B8083EA8DE4
:102C8000FB8D808199A1892B80839BB18A2D8C7FBC
:102C90009370892B8BB995B18A2D83709C7F892B7A
:102CA00085B9EC8DFD8D80819EA189238083EC8D7B
:102CB000FD8D80819AA1892B80839BB18B2D8C7F88
:102CC0009370892B8BB995B18B2D83709C7F892B49
:102CD00085B9EC8DFD8D80819EA189238083EC8D4B
:102CE000FD8D80819AA1892B8083E88DF98D80816B
:102CF00098A1892B8083DF91CF911F910F91FF9035
:102D0000EF90DF90CF90BF90AF900895EF92FF9239
:102D10000F931F93CF93DF93EC010E948A0BE88DF2
:102D2000F98D80819CA1892380838F89811122C0A4
:102D3000ED89E150E33040F4F0E0EE0FFF1FE85D75
:102D4000FD4F4081518102C040E350E163E070E0FB
:102D5000CE010E949C0F0A851B8501501109288510
:102D600039852150310940E050E060E070E0CE014B
:102D70000E940D138F89813089F4ED89E150E33091
:102D800028F4F0E0EB5DFD4F408101C040E066E1DA
:102D9000CE010E94600FCE010E947C108F8982308C
:102DA00039F58D89813059F038F0823059F083300F
:102DB00059F408E2E02E08C018E8E12E05C0B8EE8C
:102DC000EB2E02C0A8E4EA2E4E2D66E3CE010E944F
:102DD000600F0A851B85015011092885398521500E
:102DE000310940E050E060E070E0CE010E940D1338
:102DF0008F89833031F58D89813059F038F08230F8
:102E000059F0833051F4F0E6FF2E07C0E0ECFE2EBF
:102E100004C070EAF72E01C0F12C4F2D66E3CE01FD
:102E20000E94600F0A851B8501501109288539858C
:102E30002150310940E050E060E070E0CE010E9496
:102E40000D13DF91CF911F910F91FF90EF90089597
:102E50000F931F93CF93DF93EC018B010E94A70B7D
:102E600068EC70E080E090E00E94502B053283E92E
:102E7000180721F00832E3E91E0741F51F8AE88DA3
:102E8000F98D80819CA1892380830AE617E0F801EF
:102E900085919491F8013296459154918F3F910517
:102EA00031F4BA0180E090E00E94502B04C0BC01D4
:102EB000CE010E949C0F0C5F1F4FF8E006331F07E6
:102EC00031F76D89CE010E9486165FC0013483E917
:102ED000180709F066C082E08F8BE88DF98D80813C
:102EE0009CA18923808340E061E0CE010E94600FB5
:102EF00062E370E080E090E00E94502B40E068E2E6
:102F0000CE010E94600F43E260ECCE010E94600F90
:102F100040E161ECCE010E94600F4BE25BE265ECA8
:102F200070E0CE010E949C0F40EC67ECCE010E9445
:102F3000600F48E866E3CE010E94600F45E56AE352
:102F4000CE010E94600F4BE150E061EB70E0CE01DA
:102F50000E949C0F47E067EBCE010E94600F40E0AB
:102F600061E1CE010E94600F66E970E080E090E0D0
:102F70000E94502B40E069E2CE010E94600F64EF96
:102F800071E080E090E00E94502B0FE311E02FEE03
:102F900030E040E050E060E070E0CE010E940D13B0
:102FA000ADC00735E3E81E0709F077C083E08F8BDB
:102FB000E88DF98D80819CA18923808380E0E82FB2
:102FC000F0E0EA5CF74F949112E0180F61E0680FAF
:102FD000E62FF0E0EA5CF74F64919F3F31F470E038
:102FE00080E090E00E94502B54C0A88DB98D2C91A8
:102FF0003CA123232C93AA8DBB8D2C913DA123238F
:103000002C933BB1292F2C7F3370232B2BB925B167
:1030100093702C7F922B95B9EC8DFD8D90812EA114
:1030200092239083EC8DFD8D90812AA1922B908329
:10303000EA8DFB8D908129A1922B9083860F8E5F64
:10304000E12FE817F9F031E03E0FF0E0EA5CF74FCE
:10305000E4912BB19E2F9C7F2370922B9BB995B14D
:10306000E3709C7FE92BE5B9EC8DFD8D90812EA15D
:1030700092239083EC8DFD8D90812AA1922B9083D9
:10308000E32FDFCF160FE88DF98D808198A1892B72
:103090008083163498F5812F92CF0537154761F557
:1030A00081E08F8BE88DF98D80819CA189238083BD
:1030B0000CE718E0F8018491319644918F3F39F480
:1030C000642F70E080E090E00E94502B04C0682FD5
:1030D000CE010E94600F0E5F1F4FF8E0023D1F07F8
:1030E00049F76D89CE010E948616CE01DF91CF91FE
:1030F0001F910F910C947C108FEF8F8BDF91CF91EC
:103100001F910F910895CF93DF931F92CDB7DEB734
:103110006983DC01ED91FC910280F381E02D41E0B7
:1031200050E0BE016F5F7F4F09950F90DF91CF9107
:103130000895CF93DF93EC01898D9A8D009759F014
:10314000FC01138212820E944624E98DFA8D2281AD
:103150003381232B31F081E090E09B838A8380E0F0
:1031600090E0DF91CF910895FC01818D928D0097C1
:1031700011F00C94E6210895CF93DF931F92CDB701
:10318000DEB741E050E0BE016F5F7F4F0E94F71F46
:10319000019719F4898190E002C08FEF9FEF0F90A3
:1031A000DF91CF910895FC01818D928D009711F0F0
:1031B0000C94BC188FEF9FEF08950F931F93CF933C
:1031C000DF938C01FC01818D928D0097B9F00E94F4
:1031D000BC18EC018F3FFFEF9F0799F0F801818D3C
:1031E000928DFC0142855385648575854150510956
:1031F000610971090E944A21CE0105C080E090E07A
:1032000002C08FEF9FEFDF91CF911F910F91089533
:10321000CF92DF92EF92FF920F931F93CF93DF93A2
:10322000EC017B016A011B821A8208EE13E020E0A8
:1032300030E00C831D832E833F8386E592E09983E3
:1032400088838DE190E00E944D309A8F898F00979E
:1032500079F02DE1F701DC0101900D922A95E1F75B
:103260004CE050E0B601CE010C960E949131188ED0
:10327000DF91CF911F910F91FF90EF90DF90CF9052
:103280000895FC011382128248EE53E060E070E082
:10329000448355836683778386E592E091838083B8
:1032A000128E118E14860895FC01818D928D0097E7
:1032B00011F00C94F71F80E090E00895FC01818DDF
:1032C000928D009729F00E944A2191E0811101C05E
:1032D00090E0892F0895DC015996ED91FC915A9761
:1032E000309729F0628573858485958508956FEF01
:1032F0007FEFCB010895DC015996ED91FC915A972F
:10330000309729F06389748985899689089560E0EA
:1033100070E0CB010895CF92DF92EF92FF92CF93AE
:10332000DF93EC01898D9A8D892BD9F0CE010E9413
:103330007B196B017C01CE010E946B19A7019601DC
:10334000261B370B480B590BDA01C901811530E8F0
:103350009307A105B10538F08FEF9FE7A0E0B0E03B
:1033600002C080E090E0DF91CF91FF90EF90DF907E
:10337000CF900895CF93DF93EC01898D9A8D0097BC
:1033800041F00E942D22898D9A8D0E94E5301A8E7F
:10339000198EDF91CF910895DC015996ED91FC9142
:1033A0005A97309721F081E09581911101C080E01A
:1033B00008950F931F93CF93DF93EC01462F61E0A5
:1033C0000E94BD1C811102C080E01DC08E01045FFF
:1033D0001F4F41E0BE01C8010E948D29882359F08A
:1033E000B801CE018A960E94A71F91E0811101C009
:1033F00090E0892F08C040E0BE01C8010E948D29DD
:10340000882311F3EDCFDF91CF911F910F91089594
:10341000FC01DB0112968D919C911397938382831B
:1034200088E692E09183808314968C91149784832C
:1034300015968C911597858316964D915D916D919A
:103440007C91199746835783608771871A964D91AF
:103450005D916D917C911D97428753876487758735
:103460001E964D915D916D917C915197468757873E
:10347000608B718B52968C915297828B53964D91A3
:103480005D916D917C915697438B548B658B768BB8
:1034900057964D915D916D917C915A97478B508FC6
:1034A000618F728F5B968D919C915C97948F838FC7
:1034B00008954F925F926F927F928F929F92AF92F8
:1034C000BF92CF92DF92EF92FF920F931F93CF9311
:1034D000DF93CDB7DEB7C754D1090FB6F894DEBF7E
:1034E0000FBECDBF6C014A013901665D7F4F5E01A1
:1034F0008EE1A80EB11CC5010E94081A1C821B8215
:1035000088E692E09A8389831E828401FE013196C7
:103510007F015A2C4B2C6FE270E0C8010E9486316B
:103520000097E9F1F80120812F3219F40F5F1F4F46
:10353000F2CF801B8D3008F08CE0A82EB12CA501B5
:10354000B801CE01CB960E949131EBE3F0E0EC0F95
:10355000FD1FEA0DFB1D1082C7010E942D2221E0F4
:10356000AE01455C5F4F652D742DC7010E9461233C
:10357000811109C0F6011382128288E692E09183DC
:103580008083158216C00A0D1B1D852D942D0E9467
:103590002D22C2015E2C4F2CE92EF82EBCCF08192B
:1035A0001909F30111830083652D742DC6010E9452
:1035B000081AC601C95BDF4F0FB6F894DEBF0FBE15
:1035C000CDBFDF91CF911F910F91FF90EF90DF90D2
:1035D000CF90BF90AF909F908F907F906F905F90B3
:1035E0004F9008959F92AF92BF92CF92DF92EF9249
:1035F000FF920F931F93CF93DF93CDB7DEB7C955DB
:10360000D1090FB6F894DEBF0FBECDBF7C016B01B0
:103610005A01922E9E01285A3F4FCE01CB960E940E
:10362000591A6A960EAD1FAD6A970A0D1B1DF80157
:10363000808181110AC0BE01655C7F4FCE01019679
:103640000E94081A42E652E041C019A218A288E678
:1036500092E09F8F8E8F1BA221968FAD21978111B3
:1036600004C0C7010E94411937C08250823060F403
:10367000B601665D7F4F292DA801CE014E960E94AE
:103680006123811110C0EDCF292DA801BE01655C19
:103690007F4FCE014E960E946123882311F3CE0105
:1036A000CB960E942D22892D867041F049A95AA9F6
:1036B0006BA97CA9CE014E960E944A21BE01625E92
:1036C0007F4FCE0101960E94081AA801BE016F5FCC
:1036D0007F4FC7010E940819C701C75ADF4F0FB6B5
:1036E000F894DEBF0FBECDBFDF91CF911F910F9138
:1036F000FF90EF90DF90CF90BF90AF909F90089594
:103700001092D6021092D7021092DA021092DC02C6
:1037100082E090E0A0E0B0E08093DD029093DE02D2
:10372000A093DF02B093E0021092F4021092FE0226
:103730001092FD0288E692E09093FC028093FB02D7
:103740001092000308959FB7F89420912805809166
:103750002605213019F48DBB9FBF08958FBF0895B2
:1037600020912805222399F03FB7F894209128054D
:10377000213059F42DB3209326054DB32091270510
:10378000209524232DBB3FBF02C0309326058CBD5E
:103790009DBD08958EBD00000DB407FEFDCF8EB512
:1037A00008958FEF0C94CA1B61E0FC0184810E9494
:1037B000322C80911A03882339F010921A038091D9
:1037C000280581110C94A31B0895CF93DF93EC017E
:1037D00080911A03811109C081E080931A038091BE
:1037E0001B0390911C030E94B01B60E08C81DF9151
:1037F000CF910C94322CCF93DF93EC018E818823F0
:1038000089F08F8198859C012F5F3F4F38872F83E8
:103810008230924018F40E94D11BF3CFCE010E9457
:10382000D41B1E82DF91CF910895673028F026E1E6
:10383000FC01258380E00895623081F030F4662336
:1038400059F06130B1F480E515C0643059F040F0B2
:10385000653079F482E50EC080E505C081E503C0DE
:1038600081E508C082E580931B0381E080931C03FF
:10387000089583E580931B0310921C0381E0089553
:103880000F931F93CF93DF93EB010E94212B8B01AA
:103890000E94D11B8F3F49F00E94212B601B710BAE
:1038A0006C177D07A8F380E001C081E0DF91CF9124
:1038B0001F910F910895CF92DF92FF920F931F9364
:1038C000CF93DF9300D000D0CDB7DEB76C01F62EDA
:1038D00029833A834B835C830E94FB1BC6010E94B1
:1038E000E51B6CE271E0C6010E94401C8F2D8064D4
:1038F0000E94CA1B08E110E05C814B813A8129815A
:10390000DA01C901002E04C0B695A7959795879551
:103910000A94D2F729833A834B835C830E94CA1BA3
:103920000850110929813A814B815C81083F8FEF52
:10393000180731F7FF2029F0E8E0FE1621F08FEF9D
:1039400003C085E901C087E80E94CA1B10E00E94FD
:10395000D11BF601828787FF04C01F3F11F01F5F54
:10396000F6CF0F900F900F900F90DF91CF911F9196
:103970000F91FF90DF90CF900895BF92CF92DF928A
:10398000EF92FF920F931F93CF93DF93EC01B62E2C
:103990001B8619861E821D824C830E94212B8B015F
:1039A00061E08C810E94F92B61E08C810E94322CB5
:1039B0000E94A12A82E580931B0310921C03809130
:1039C0001B0390911C030E94B01B2AE0F22E8FEF84
:1039D0000E94CA1BFA94D9F78091280581110E9490
:1039E000A31BCE010E94E51B20E030E0A90160E0AE
:1039F000CE010E945B1CF82E8A8781E0F81649F000
:103A00000E94212B601B710B613D774068F381E0C0
:103A10004BC02AEA31E040E050E068E0CE010E946D
:103A20005B1C82FF02C0FB860DC094E0F92E0E9451
:103A3000D11B8A87FA94D9F78A3A11F082E034C010
:103A400082E08B878B85823031F4C12CD12CE12C24
:103A500080E4F82E03C0C12CD12C760120E030E0A8
:103A6000A90167E3CE010E945B1CA701960169E2F0
:103A7000CE010E945B1C8A87882349F00E94212B7B
:103A8000601B710B613D774048F388E00DC08B856A
:103A9000823031F520E030E0A9016AE3CE010E94D6
:103AA0005B1C882381F086E08D83CE010E94D41BAD
:103AB00080E0DF91CF911F910F91FF90EF90DF9009
:103AC000CF90BF9008950E94D11B807C803C11F460
:103AD00083E08B870E94D11B0E94D11B0E94D11BC7
:103AE000CE010E94D41B6B2DCE01DF91CF911F918F
:103AF0000F91FF90EF90DF90CF90BF900C94151C2A
:103B00000F931F93CF93DF93EC010E94212B8B0126
:103B10000E94D11B8A878F3F49F40E94212B601B92
:103B2000710B6D327140A0F38FE003C08E3F39F00E
:103B30008DE08D83CE010E94D41B80E001C081E026
:103B4000DF91CF911F910F910895CF92DF92EF9265
:103B5000FF920F931F93CF93DF93EC01690101153F
:103B6000110509F462C0C801820F931F8130924091
:103B700008F05DC08E81882371F088819981AA81C7
:103B8000BB81481759076A077B0729F48F819885FD
:103B9000C816D90610F5488359836A837B838B85C1
:103BA000833039F039E0440F551F661F771F3A956F
:103BB000D1F79A01AB0161E1CE010E945B1C882321
:103BC00019F083E08D8333C0CE010E94801D8823CD
:103BD00071F118861F8281E08E838F8198858C1504
:103BE0009D0540F40E94D11B8F819885019698878E
:103BF0008F83F3CF6701E00EF11ECE14DF0431F0A6
:103C00000E94D11BF60181936F01F7CF8F819885B8
:103C1000800F911F98878F832985222319F08115A2
:103C2000924018F0CE010E94FB1B81E004C0CE013F
:103C30000E94D41B80E0DF91CF911F910F91FF90E4
:103C4000EF90DF90CF900895EF92FF920F931F9324
:103C5000790100E012E020E030E00E94A51D1F91F4
:103C60000F91FF90EF900895CF92DF92EF92FF9225
:103C70000F931F93CF93DF9300D0CDB7DEB78C01A6
:103C8000862F49835A830E94CA1B4981C42E5A81B8
:103C9000D52EE12CF12CF60181916F010E94CA1BF7
:103CA000FFEFEF1AFF0AE11482E0F806A1F78FEFA9
:103CB0000E94CA1B8FEF0E94CA1B0E94D11BF801F1
:103CC00082878F71853039F081E18583C8010E9438
:103CD000D41B80E001C081E00F900F90DF91CF9165
:103CE0001F910F91FF90EF90DF90CF9008950F9369
:103CF0001F93CF93DF93EC018901411551056105B5
:103D0000710511F482E132C08B85833039F089E08E
:103D1000440F551F661F771F8A95D1F79A01AB0193
:103D200068E1CE010E945B1C882311F084E01EC074
:103D3000A8016EEFCE010E94341E8823C1F068E511
:103D400072E0CE010E94401C811102C085E10EC0CC
:103D500020E030E0A9016DE0CE010E945B1C8111E2
:103D600004C00E94D11B882339F084E18D83CE01E9
:103D70000E94D41B80E004C0CE010E94D41B81E0CD
:103D8000DF91CF911F910F91089580E580931B03E0
:103D900010921C030895CF93DF93EC019C012A5FDE
:103DA0003F4F41E050E060E070E08B8D9C8D0E94C1
:103DB00022288823A1F04F89588D698D7A8D452B53
:103DC000462B472B71F44E815F81688579854F8B37
:103DD000588F698F7A8F8C8180688C8302C080E0D5
:103DE00001C081E0DF91CF910895CF92DF92EF92F1
:103DF000FF921F93CF93DF93EC010E94CB1E8111A2
:103E000002C080E04BC0EB8DFC8DCE80DF80E8846B
:103E1000F98482E0C81AD108E108F108058404C0D9
:103E2000CC0CDD1CEE1CFF1C0A94D2F7468557858E
:103E300060897189C40ED51EE61EF71E148181E0CB
:103E4000C81AD108E108F108112361F0C701B601D1
:103E5000610F711D811D911D0E946C26882389F2BE
:103E60001150F2CFEB8DFC8DC12C82E0D82EE12CCD
:103E7000F12C058404C0CC0CDD1CEE1CFF1C0A9444
:103E8000D2F74B895C896D897E894C0D5D1D6E1D55
:103E90007F1D4B8B5C8B6D8B7E8B81E0DF91CF9197
:103EA0001F91FF90EF90DF90CF900895CF93DF9315
:103EB000EC01462F6E857F85888999890E9431267D
:103EC000882341F08A8920E2829FC00111248A5D03
:103ED0009C4F02C080E090E0DF91CF910895282FA1
:103EE000FB018BE030E231938150E9F7A22FB92F2B
:103EF00020E037E09D91992319F19E3219F0E2ED0F
:103F0000F8E008C03A3011F128E03AE0F3CF3196FA
:103F10004917E1F044914111FACF3217B8F04FED53
:103F2000490F4E3598F441E0420FFB01E20FF11DBD
:103F30002FE9290F2A3108F490529083242FDACFE9
:103F400081E0FB019081903209F480E008950F93A5
:103F50001F93CF93DF93EC018B018D81882311F0A8
:103F600080E040C0FB0187898031B1F482E08D831D
:103F70001F8A188E198E1A8E408D518D60E070E068
:103F800095E0440F551F661F771F9A95D1F74B8B0D
:103F90005C8B6D8B7E8B15C0803211F783E08D8337
:103FA000FB01428D538D648D758D4F8B588F698FBA
:103FB0007A8F9E012D5E3F4FC8010E9416278823ED
:103FC00079F21C8F0B8F81E08C831E821F821886F2
:103FD00019861A861B861C861D861E861F86188AD1
:103FE000198A1A8ADF91CF911F910F9108952F920C
:103FF0003F924F925F926F927F928F929F92AF9279
:10400000BF92CF92DF92EF92FF920F931F93CF93C5
:10401000DF93EC016B015A018D81811103C08FEF99
:104020009FEFDAC08C8180FFFACF4B895C896D8964
:104030007E898A859B85AC85BD852501612C712C87
:104040008A019B01081B190B2A0B3B0B0415150554
:104050002605370518F45A01A81AB90A25011E01C8
:1040600026E0220E311C4114510409F47BC04A851C
:104070005B856C857D854A0181E09822ED818A010E
:104080009B01F9E03695279517950795FA95D1F795
:104090008B8D9C8DE23051F4FC01628D738D848D8B
:1040A000958D600F711F821F931F3EC0FC017480AD
:1040B0007A94702281149104C9F4711017C0452BB1
:1040C000462B472B49F48F89988DA98DBA8D8E8305
:1040D0009F83A887B9870AC04E815F8168857985EB
:1040E00091010E949226882309F499CFEB8DFC8DD3
:1040F0006E817F8188859985625071098109910956
:10410000058404C0660F771F881F991F0A94D2F791
:104110000685178520893189600F711F821F931FC3
:10412000670D711D811D911D20E032E028193909AC
:1041300032012415350508F439012C8126FD04C00F
:104140006114F2E07F06A1F5009158011091590128
:1041500020915A0130915B01601771078207930724
:1041600019F426C0C50138C0760183019401AB0162
:10417000BC0180912403909125030E94A51D8823F2
:1041800009F44DCFC60CD71C04C0E81BF90BCE0EAA
:10419000DF1E8A859B85AC85BD85860D971DA11D7B
:1041A000B11D8A879B87AC87BD87461857085BCFB0
:1041B00040E00E943126882309F431CFC4018A5D92
:1041C0009C4FD6019C01260D371DFC01E217F30719
:1041D000E1F241914D93FACFDF91CF911F910F9171
:1041E000FF90EF90DF90CF90BF90AF909F908F9017
:1041F0007F906F905F904F903F902F900895FF9227
:104200000F931F93CF93DF931F92CDB7DEB78C012F
:10421000FC018581823018F480E090E034C0F80120
:104220004285538564857585A5E076956795579594
:104230004795AA95D1F7F42FFF70FF2E41E050E08B
:10424000BE016F5F7F4FC8010E94F71F019719F4ED
:10425000298130E002C02FEF3FEF2F3F3F4FE1F2C7
:10426000F8014285538564857585415E5F4F6F4FC8
:104270007F4F4287538764877587F0E2FF9EC001B6
:1042800011248A5D9C4F0F90DF91CF911F910F9168
:10429000FF9008954F925F926F927F92AF92BF927C
:1042A000CF92DF92EF92FF920F931F93CF93DF9302
:1042B000EC016A017B012D81222309F457C08B890F
:1042C0009C89AD89BE8984179507A607B70708F4AE
:1042D0004DC04EC08A859B85AC85BD85EB8DFC8D20
:1042E000E585F0E03996AC01BD0141505109610905
:1042F00071090E2E04C076956795579547950A94D7
:10430000D2F797018601015011092109310904C032
:104310003695279517950795EA95D2F7041715074F
:1043200026073707B0F58F89988DA98DBA8D8E83B2
:104330009F83A887B987280139015E0186E0A80E0E
:10434000B11C411451046104710461F14E815F811B
:104350006885798595018B8D9C8D0E94922691E0D0
:10436000491A5108610871088111EBCF80E01FC024
:104370002230C1F0C114D104E104F10409F0AACF44
:104380001E821F82188619861A861B861C861D8629
:104390000DC0892B8A2B8B2B31F2041B150B260B9E
:1043A000370BC9CFCA86DB86EC86FD8681E0DF91BC
:1043B000CF911F910F91FF90EF90DF90CF90BF9022
:1043C000AF907F906F905F904F9008950F931F93E1
:1043D000CF93DF93EC018D818823C9F18C8187FF16
:1043E00030C061E0CE010E94561F8C01009779F128
:1043F0008D81823048F44B895C896D897E89F80112
:10440000448F558F668F778F4F89588D698D7A8D40
:10441000F801538F428F758B648BE0911D03F091EF
:104420001E03309759F0B8016A5E7F4FC801489665
:104430000995F801808D918D938B828B8C818F777C
:104440008C83DF91CF911F910F910C94F62580E022
:10445000DF91CF911F910F910895CF93DF93EC01DE
:104460000E94E621882319F01D8281E001C080E0CE
:10447000DF91CF9108954F925F926F927F92AF92AA
:10448000BF92CF92DF92EF92FF920F931F93CF9341
:10449000DF9300D000D0CDB7DEB75C016A017B01AD
:1044A000FC0185818130F1F4848181FF1BC0F5011D
:1044B00083899489A589B68984179507A607B707C4
:1044C00088F0892B8A2B8B2B09F479C0F501428463
:1044D000538464847584B701A601C5010E944A21F2
:1044E000811102C080E06CC0F501838D948DC114F0
:1044F000D104E104F10471F44789508D618D728D0E
:104500000E943729882371F3F501178A108E118EC6
:10451000128E3AC0F50146815781608571859E01F2
:104520002F5F3F4F0E9492268823E1F249815A81F2
:104530006B817C81F501838D948DFC01278920316D
:1045400029F408EF1FEF20E030E004C008EF1FEF70
:104550002FEF3FE04017510762077307A8F40E944E
:104560003729882309F4BECFF5014681578160853C
:1045700071850FEF1FEF2FEF3FE0838D948D0E9429
:104580008127882309F4AECFF501C38AD48AE58A4E
:10459000F68A848180688483C5010E94E62188238D
:1045A00009F4A0CFB701A6014C145D046E047F048A
:1045B00010F4B301A201C5010E944A2101C081E0AB
:1045C0000F900F900F900F90DF91CF911F910F914F
:1045D000FF90EF90DF90CF90BF90AF907F906F9063
:1045E0005F904F900895FF920F931F93CF93DF93A7
:1045F000EC01F42E80E2689FF0011124EA5DFC4F8B
:104600008385817129F0842F827411F080E053C07A
:104610006A8B8091580190915901A0915A01B091F3
:104620005B018E879F87A88BB98B4489558960E091
:1046300070E0BA0155274427028D138D20E030E049
:10464000402B512B622B732B4F8B588F698F7A8F96
:104650008385887151F4048D158D268D378D0B8BD4
:104660001C8B2D8B3E8B81E00CC0803179F69E0136
:104670002D5E3F4F8B8D9C8D0E941627882331F233
:1046800084E08D838F2D8F708C831E821F8218860D
:1046900019861A861B861C861D86F6FE0BC040E016
:1046A00050E0BA01CE01DF91CF911F910F91FF90A1
:1046B0000C943B2281E0DF91CF911F910F91FF90ED
:1046C0000895AF92BF92CF92DF92EF92FF920F9335
:1046D0001F93CF93DF93CDB7DEB72B970FB6F89428
:1046E000DEBF0FBECDBF7C016B01CA01B22EF70148
:1046F00025812111B9C0BE016F5F7F4F0E946F1FDE
:10470000882309F4B1C0F601838D948DF701948F4D
:10471000838FF60116821782108611861286138601
:1047200014861586A12CF60102851385248535850E
:1047300083899489A589B689081719072A073B0731
:10474000E8F545E036952795179507954A95D1F7F1
:104750000F70C6010E94FF20009709F485C0FC017C
:104760002081222311F0253EB9F4A1100EC0F701DB
:10477000028B409158015091590160915A017091FA
:104780005B0146875787608B718BFC018081AA246F
:10479000A3948111C8CF12C04BE050E0BC01CE0100
:1047A00001960E947931892B09F0BDCF8B2D807342
:1047B000803309F459C04B2D602F52C08B2D82716C
:1047C000823109F051C0AA2041F061E0C7010E9486
:1047D000561F8C01009779F447C0F601858182301D
:1047E00009F442C0C6010E94F51E8823E9F1F701D1
:1047F000128A06E213E080E2F80111928A95E9F745
:104800008BE0FE013196D80101900D928A95E1F777
:10481000E0911D03F0911E03309739F0B801625FFB
:104820007F4FC8014096099509C081E298E2F801DE
:10483000918B808B80E098E097878687F80180894C
:104840009189938B828B918F808F86859785978BAB
:10485000868B0E94F625882339F04B2DF70162895B
:10486000C7010E94F32201C080E02B960FB6F89496
:10487000DEBF0FBECDBFDF91CF911F910F91FF9093
:10488000EF90DF90CF90BF90AF9008952F923F921E
:104890004F925F926F927F928F929F92AF92BF9250
:1048A000CF92DF92EF92FF920F931F93CF93DF93FC
:1048B00000D000D01F92CDB7DEB78C017B013A014A
:1048C000DC0115968C9115978130C9F414968C9162
:1048D00081FF15C082FF1BC0F80143895489658997
:1048E000768982859385A485B58584179507A60763
:1048F000B70769F0C8010E944A21811108C081E010
:1049000090E0F8019383828380E090E046C16301E8
:1049100080C0D8015B968D919C915C97FC01F481DD
:10492000F150B501A40129E0769567955795479513
:104930002A95D1F7F423FD8321E09222FF2309F485
:1049400074C080E092E08819990956018C159D0584
:1049500008F45C01D8015B96ED91FC915C9716968A
:104960002D903D904D905C901997B2E02B1A310834
:1049700041085108058404C0220C331C441C551CFA
:104980000A94D2F786859785A089B189280E391EA9
:104990004A1E5B1EED812E0E311C411C511CA114C0
:1049A000F2E0BF0609F088C080915801909159014A
:1049B000A0915A01B0915B0182159305A405B5053C
:1049C00059F48FEF9FEFDC018093580190935901C8
:1049D000A0935A01B0935B019701B201A1018091AC
:1049E0002403909125030E94771E882309F487CF22
:1049F0009EEFF91ACA18DB08F80182859385A48511
:104A0000B5858A0D9B1DA11DB11D82879387A48743
:104A1000B587D8011A968D909D90AD90BC901D974A
:104A2000C114D10409F075CF8AC08114910409F032
:104A300088CF16964D915D916D917C911997411596
:104A400051056105710559F457968D919D910D9011
:104A5000BC91A02D0097A105B10541F521C09E0193
:104A60002F5F3F4F0E949226882309F44ECF898101
:104A70009A81AB81BC81F801238D348DF90127899E
:104A8000203129F448EF5FEF60E070E004C048EFA8
:104A90005FEF6FEF7FE084179507A607B70730F049
:104AA000C8010E94CB1E81114CCF29CFF80186830B
:104AB0009783A087B18745CF8114910429F5D80148
:104AC0001A964D915D916D917C911D9753968D91A4
:104AD0009D910D90BC91A02D481759076A077B073F
:104AE00098F00E94F625882309F409CF20925801F6
:104AF0003092590140925A0150925B0180912303F8
:104B000081608093230308C041E0C201B1010E948B
:104B10003126882309F4F3CEC4018A5D9C4FD70166
:104B20009C012A0D3B1DFC01E217F30719F04D9182
:104B30004193FACFE81BF90BEE0EFF1E5BCF5396A5
:104B40008D919D910D90BC91A02DF8012481881527
:104B50009905AA05BB0538F4838A948AA58AB68A82
:104B6000206824830CC080911D0390911E03892B23
:104B700031F06114710419F02068F8012483D80120
:104B800014968C9183FD02C0C30107C0C8010E9426
:104B9000E621882309F4B3CEF7CF0F900F900F9042
:104BA0000F900F90DF91CF911F910F91FF90EF9099
:104BB000DF90CF90BF90AF909F908F907F906F903D
:104BC0005F904F903F902F900895CF93DF931F9267
:104BD000CDB7DEB7698341E050E0BE016F5F7F4F24
:104BE0000E9446240F90DF91CF9108958091230376
:104BF000882399F1409158015091590160915A01CF
:104C000070915B0126E233E08091240390912503AB
:104C10000E94771E882319F140911F0350912003B1
:104C200060912103709122034115510561057105C1
:104C300091F026E233E080912403909125030E94B5
:104C4000771E882361F010921F03109220031092A8
:104C50002103109222031092230381E0089580E043
:104C60000895CF92DF92EF92FF92CF936B017C0178
:104C7000C42F8091580190915901A0915A01B0918F
:104C80005B018C159D05AE05BF05D1F00E94F62590
:104C9000811102C080E01AC026E233E0B701A6010C
:104CA00080912403909125030E94241E882391F370
:104CB000C0925801D0925901E0925A01F0925B01E2
:104CC000809123038C2B8093230381E0CF91FF906D
:104CD000EF90DF90CF900895CF92DF92EF92FF9206
:104CE0006B017C010E94F6258823B1F0E6E2F3E037
:104CF000119285E0E632F807D9F7C0925801D092B8
:104D00005901E0925A01F0925B0180912303816086
:104D10008093230381E001C080E0FF90EF90DF905B
:104D2000CF9008958F929F92AF92BF92CF92DF92D1
:104D3000EF92FF920F931F93CF93DF938C016A0141
:104D40007B01E901FC0181859285A385B4850196EB
:104D5000A11DB11D84179507A607B70710F480E0C1
:104D600058C0F801438954896589768987898031DB
:104D700029F4BB27AF2D9E2D8D2D09C0D701C6016B
:104D800027E0B695A795979587952A95D1F74C0179
:104D90005D01840E951EA61EB71EC501B40180904C
:104DA000580190905901A0905A01B0905B0168158C
:104DB00079058A059B0589F4F8018789803199F482
:104DC000DD24EE24FF24F601EE0FFF1FEA5DFC4F09
:104DD00080819181A0E0B0E017C040E00E943126C0
:104DE0008111EACFBCCFE894C7F8DD24EE24FF247C
:104DF000F601EE0FFF1FEE0FFF1FEA5DFC4F8081F3
:104E00009181A281B381BF7088839983AA83BB8378
:104E100081E0DF91CF911F910F91FF90EF90DF9094
:104E2000CF90BF90AF909F908F9008954F925F92D8
:104E30006F927F92AF92BF92CF92DF92EF92FF92EA
:104E40000F931F93CF93DF9300D000D0CDB7DEB781
:104E50008C0149835A836B837C835901C12CD12CEB
:104E60007601412C42E0542E612C712C49815A81EB
:104E70006B817C819E012F5F3F4FC8010E9492266B
:104E8000882359F1D301C201F801058404C0880FB9
:104E9000991FAA1FBB1F0A94D2F7C80ED91EEA1E7B
:104EA000FB1E49815A816B817C818789803129F47D
:104EB00088EF9FEFA0E0B0E004C088EF9FEFAFEF76
:104EC000BFE0481759076A077B0780F2F501C082E7
:104ED000D182E282F38281E001C080E00F900F90E6
:104EE0000F900F90DF91CF911F910F91FF90EF9056
:104EF000DF90CF90BF90AF907F906F905F904F907A
:104F000008954F925F926F927F928F929F92AF928D
:104F1000BF92CF92DF92EF92FF920F931F93CF93A6
:104F2000DF93EC016A017B01280139014230510510
:104F30006105710508F474C049855A856B857C85C7
:104F40004F5F5F4F6F4F7F4F4C155D056E057F05BF
:104F500008F466C08B889C88AD88BE888F898031B4
:104F600029F477276F2D5E2D4D2D09C0B701A601BD
:104F7000E7E07695679557954795EA95D1F7840EC2
:104F8000951EA61EB71E409158015091590160917F
:104F90005A0170915B0184169506A606B70671F456
:104FA0008F89803199F4DD24EE24FF24F601EE0F81
:104FB000FF1FEA5DFC4F5182408218C040E0C501EE
:104FC000B4010E9431268111EBCF2AC0E894C7F8C2
:104FD000DD24EE24FF24F601EE0FFF1FEE0FFF1F6E
:104FE000EA5DFC4F4082518262827382809123038A
:104FF0008160809323038A89823080F08D819E8135
:10500000AF81B885880D991DAA1DBB1D80931F0314
:1050100090932003A0932103B093220381E001C069
:1050200080E0DF91CF911F910F91FF90EF90DF9083
:10503000CF90BF90AF909F908F907F906F905F9038
:105040004F9008952F923F924F925F926F927F926E
:105050009F92AF92BF92CF92DF92EF92FF920F9307
:105060001F93CF93DF93CDB7DEB760970FB6F89459
:10507000DEBF0FBECDBF5C014D875E876F87788B2B
:105080001901D9014D905D906D907C9041145104AF
:105090006104710431F0BFEF4B1A5B0A6B0A7B0AA3
:1050A00010C0FC01408051806280738099249394E9
:1050B0000D851E852F8538890130110521053105A3
:1050C00009F0912CD50119962D913D914D915C914E
:1050D0001C972F5F3F4F4F4F5F4F29873A874B8772
:1050E0005C87730162011D821E821F821886F50192
:1050F00081859285A385B4850D811E812F81388598
:10510000081719072A073B0708F056C029853A8572
:105110004B855C852C153D054E055F0550F4A2E0DE
:10512000CA2ED12CE12CF12CB2E04B2E512C612C4B
:10513000712C9E012F5F3F4FB701A601C5010E9450
:1051400092268823C9F149815A816B817C81D701DC
:10515000C6010196A11DB11D452B462B472B19F009
:105160002C013D010FC0AC01BD0144195509660970
:1051700077090D851E852F853889401751076207ED
:10518000730779F02D813E814F8158852F5F3F4F06
:105190004F4F5F4F2D833E834F8358876C017D01B6
:1051A000A6CF0FEF1FEF2FEF3FE0B701A601C5011C
:1051B0000E948127811118C080E041C0D701C6013B
:1051C0000197A109B1098D839E83AF83B8879701A9
:1051D0008601AC01BD01C5010E948127882361F3CE
:1051E000CD80DE80EF80F8844C145D046E047F0473
:1051F00028F3D1014D915D916D917C91411551053F
:105200006105710599F4F1014082518262827382D5
:105210009920A1F0FFEF4F1A5F0A6F0A7F0AD501AC
:105220004D925D926D927C92139708C0930182011A
:10523000C5010E9481278111E6CFBECF81E0609633
:105240000FB6F894DEBF0FBECDBFDF91CF911F9197
:105250000F91FF90EF90DF90CF90BF90AF909F9015
:105260007F906F905F904F903F902F900895AF92F6
:10527000BF92CF92DF92EF92FF920F931F93CF9343
:10528000DF9300D000D0CDB7DEB75C016A017B01AF
:1052900082E090E0A0E0B0E0F50180839183A283FA
:1052A000B3839E012F5F3F4FB701A601C5010E9446
:1052B0009226882311F100E010E09801B701A601C1
:1052C000C5010E9481278823C1F0C980DA80EB8064
:1052D000FC80F5018789803129F488EF9FEFA0E0F9
:1052E000B0E004C088EF9FEFAFEFBFE0C816D9066B
:1052F000EA06FB06B0F281E001C080E00F900F905B
:105300000F900F90DF91CF911F910F91FF90EF9031
:10531000DF90CF90BF90AF9008958F929F92AF9201
:10532000BF92CF92DF92EF92FF920F931F93CF9392
:10533000DF93EC01142F709325036093240344231F
:1053400041F1453010F080E0EFC040E060E070E0F7
:10535000CB010E9431268823B1F320E1129FF00196
:105360001124EC52FB4F80818F7769F784859585F6
:10537000A685B78584369105A105B10520F3C084C3
:10538000D184E284F384C114D104E104F10421F452
:10539000DACFC12CD12C760140E0C701B6010E94C2
:1053A0003126882381F28091310390913203811557
:1053B000924049F630913603332329F28091340329
:1053C00090913503892B09F4BECF2091330322231A
:1053D00009F4B9CF3A8B2C831D8630E041E050E0D0
:1053E0006D85062FCA01062E02C0880F991F0A94E8
:1053F000E2F72817390731F081E0860F8D87683092
:1054000078F3A1CF20913C0330913D032115310564
:1054100019F040E050E008C020914A0330914B035E
:1054200040914C0350914D032D833E834F83588709
:10543000809134039091350346015701880E991EDF
:10544000A11CB11C8B8A9C8AAD8ABE8AE09137036D
:10545000F0913803F98FE88FA0913603B0E00E94F5
:105460003C30680D791D8A1D9B1D6A8F7B8F8C8F48
:105470009D8F15E0EE0FFF1F1A95E1F7E150FE4FEB
:10548000EF2FFF27E695DC01CB018E0F9F1FA11D9B
:10549000B11D8E879F87A88BB98B80903903909020
:1054A0003A038114910419F0A12CB12C08C080900A
:1054B000460390904703A0904803B0904903A7018A
:1054C0009601281B390B4A0B5B0BDA01C901880DC9
:1054D000991DAA1DBB1D04C0B695A79597958795E4
:1054E0000A95D2F789879A87AB87BC87853F3FE0CB
:1054F0009307A105B10510F48CE014C0853F9F4FC0
:10550000A105B10510F480E10DC080915203909186
:105510005303A0915403B09155038A8F9B8FAC8F96
:10552000BD8F80E28F8B81E0DF91CF911F910F9132
:10553000FF90EF90DF90CF90BF90AF909F908F90B3
:105540000895CF93CFB7F89480912905811127C092
:10555000E4E1F9E08491E0E0F9E09491E82FF0E0F3
:10556000EE0FFF1FE85DF64FA591B4918C91892352
:1055700021F461E08AE00E94322C61E08AE00E941E
:10558000F92B8CB580618CBD8CB580648CBD61E0DD
:105590008DE00E94F92B61E08BE00E94F92B809155
:1055A00029058F5F80932905CFBFCF9108951F9262
:1055B0000F920FB60F9211242F933F938F939F93C7
:1055C000AF93BF9380912B0590912C05A0912D0551
:1055D000B0912E0530912A0523E0230F2D3720F4BA
:1055E0000196A11DB11D05C026E8230F0296A11D3D
:1055F000B11D20932A0580932B0590932C05A09331
:105600002D05B0932E0580912F0590913005A09126
:105610003105B09132050196A11DB11D80932F0572
:1056200090933005A0933105B0933205BF91AF91AF
:105630009F918F913F912F910F900FBE0F901F90D0
:1056400018952FB7F89460912B0570912C058091D7
:105650002D0590912E052FBF08953FB7F8948091A6
:105660002F0590913005A0913105B091320526B5F6
:10567000A89B05C02F3F19F00196A11DB11D3FBF8A
:105680006627782F892F9A2F620F711D811D911D1A
:1056900042E0660F771F881F991F4A95D1F708953A
:1056A0008F929F92AF92BF92CF92DF92EF92FF9232
:1056B0006B017C010E942D2B4B015C01C114D104B4
:1056C000E104F104F1F00E94FB2F0E942D2B6819D8
:1056D00079098A099B09683E73408105910570F339
:1056E00021E0C21AD108E108F10888EE880E83E0B3
:1056F000981EA11CB11CC114D104E104F10429F7C6
:10570000DDCFFF90EF90DF90CF90BF90AF909F9054
:105710008F9008958230910538F0880F991F880F77
:10572000991F05970197F1F70895789484B58260E1
:1057300084BD84B5816084BD85B5826085BD85B535
:10574000816085BDEEE6F0E0808181608083E1E8E4
:10575000F0E010828081826080838081816080831C
:10576000E0E8F0E0808181608083E1EBF0E080811F
:1057700084608083E0EBF0E0808181608083EAE7F1
:10578000F0E080818460808380818260808380817A
:10579000816080838081806880831092C100089539
:1057A000833081F028F4813099F08230A1F008959F
:1057B0008730A9F08830B9F08430D1F4809180002E
:1057C0008F7D03C0809180008F7780938000089543
:1057D00084B58F7702C084B58F7D84BD0895809194
:1057E000B0008F7703C08091B0008F7D8093B000B0
:1057F0000895CF93DF9390E0FC01EA50F74F249196
:10580000FC01E65FF64F8491882349F190E0880F10
:10581000991FFC01E85DF64FA591B491825E964F09
:10582000FC01C591D4919FB7611108C0F8948C9187
:10583000209582238C93888182230AC0623051F4A0
:10584000F8948C91322F309583238C938881822B0E
:10585000888304C0F8948C91822B8C939FBFDF9136
:10586000CF9108950F931F93CF93DF931F92CDB7DE
:10587000DEB7282F30E0F901EE51F74F8491F9019E
:10588000EA50F74F1491F901E65FF64F04910023B7
:10589000C9F0882321F069830E94D02B6981E02F11
:1058A000F0E0EE0FFF1FE25EF64FA591B4919FB7B7
:1058B000F8948C91611103C01095812301C0812B54
:1058C0008C939FBF0F90DF91CF911F910F910895FF
:1058D000FC01818D228D90E0805C9F4F821B91099D
:1058E0008F7399270895FC01918D828D981731F05F
:1058F000828DE80FF11D858D90E008958FEF9FEF69
:105900000895FC01918D828D981761F0828DDF01E1
:10591000A80FB11D5D968C91928D9F5F9F73928FA2
:1059200090E008958FEF9FEF089585E09EE2892B28
:1059300049F080E090E0892B29F00E94052E81112A
:105940000C9400000895FC01848DDF01A80FB11DA7
:10595000A35ABF4F2C91848D90E001968F739927A5
:10596000848FA689B7892C93A089B1898C91806492
:105970008C93938D848D981306C00288F389E02D53
:1059800080818F7D80830895CF93DF93EC01888D94
:105990008823C9F0EA89FB89808185FD05C0A88933
:1059A000B9898C9186FD0FC00FB607FCF5CF8081B9
:1059B00085FFF2CFA889B9898C9185FFEDCFCE0103
:1059C0000E94A32CE7CFDF91CF910895CF92DF9271
:1059D000FF920F931F93CF93DF931F92CDB7DEB744
:1059E0006C0181E0D60158968C9358975B969C91F8
:1059F0005B975C968C915C97981307C05096ED91DD
:105A0000FC915197808185FD2EC0F601038D10E039
:105A10000F5F1F4F0F731127F02EF601848DF812C0
:105A200011C00FB607FCF9CFD6015096ED91FC914D
:105A30005197808185FFF1CFC60169830E94A32C15
:105A40006981EBCF838DE80FF11DE35AFF4F60832F
:105A5000D6015B960C935B975296ED91FC91539710
:105A6000808180620CC0D6015696ED91FC915797CB
:105A700060835096ED91FC91519780818064808382
:105A800081E090E00F90DF91CF911F910F91FF90F7
:105A9000DF90CF900895BF92CF92DF92EF92FF9266
:105AA000CF93DF93EC016A017B01B22EE889F9897B
:105AB00082E08083411581EE580761057105A1F0F0
:105AC00060E079E08DE390E0A70196010E94FC2F51
:105AD0002150310941095109569547953795279528
